:1000000019C020C01FC01EC01DC01CC01BC01AC00C
:1000100019C018C017C016C015C014C013C012C034
:1000200011C010C00FC00EC00DC00CC00BC00AC064
:1000300009C008C011241FBECFEFD4E0DEBFCDBF82
:10004000FED00DC1DDCFAAE7B0E08C9180688C9323
:10005000ECE7F0E08081806480838C9187608C93F2
:100060008081807F8083089580917C00807F809351
:100070007C0080917C00816080937C0080917A007C
:10008000806480937A0080917A0086FDFCCF209175
:1000900078003091790081E02D32314008F480E021
:1000A000089580917C00807F80937C0080917A000D
:1000B000806480937A0080917A0086FDFCCF209145
:1000C00078003091790081E02D32314008F480E0F1
:1000D000089580917C00807F80937C0080917C00DB
:1000E000836080937C0080917A00806480937A00A2
:1000F00080917A0086FDFCCF2091780030917900C4
:1001000081E02D32314008F480E0089580917C0038
:10011000807F80937C0080917C00826080937C0053
:1001200080917A00806480937A0080917A0086FDC5
:10013000FCCF209178003091790081E02D32314060
:1001400008F480E00895CF938FDF882311F0C8E092
:1001500001C0C0E0A6DF8111C460D8DF8111C26098
:10016000B8DF8111C1608C2FCF9108958AB1816F62
:100170008AB984B1866084B98BB180668BB9E0E8B6
:10018000F0E08081816A8083E1E8F0E0808189602D
:100190008083789408958BB18F768BB98BB180660C
:1001A0008BB908955D988BB180658BB908955E9881
:1001B0008BB1806A8BB908958F3041F4ECDF8FEFFB
:1001C00090E0909389008093880023C08E3011F0D6
:1001D0008C3011F4ECDF03C08D3051F4DCDF80E8AB
:1001E00090E090938900809388008FEF90E011C099
:1001F000873011F0833011F4D5DF03C08B3071F4F8
:10020000CADF8FEF90E0909389008093880080E8A8
:1002100090E090938B0080938A000EC081110CC0F7
:10022000BADF109289001092880010928B00109211
:100230008A0081E090E0089580E090E0089596DFE4
:1002400002DF81DF8F3011F0589801C0589AB4DF77
:100250008FEB9DE50197F1F700C00000F2CFF89415
:02026000FFCFCE
:00000001FF
