:1000000019C020C01FC01EC01DC01CC01BC01AC00C
:1000100019C018C017C016C015C014C013C012C034
:1000200011C010C00FC00EC00DC00CC00BC00AC064
:1000300009C008C011241FBECFEFD4E0DEBFCDBF82
:1000400002D01FC0DDCF80E48AB981E084B993E893
:1000500094BD789485BD88E787BDEFEBFDE53197CA
:10006000F1F700C000008F5F8F3FB1F787BDEFEB66
:10007000FDE53197F1F700C0000081508837B1F7F6
:06008000EACFF894FFCF67
:00000001FF
