:1000000019C020C01FC01EC01DC01CC01BC01AC00C
:1000100019C018C017C016C015C014C013C012C034
:1000200011C010C00FC00EC00DC00CC00BC00AC064
:1000300009C008C011241FBECFEFD4E0DEBFCDBF82
:1000400041D150C1DDCFAAE7B0E08C9180688C939C
:10005000ECE7F0E08081806480838C9187608C93F2
:100060008081807F8083089580917C00807F809351
:100070007C0080917C00816080937C0080917A007C
:10008000806480937A0080917A0086FDFCCF209175
:1000900078003091790081E02D32314008F480E021
:1000A000089580917C00807F80937C0080917A000D
:1000B000806480937A0080917A0086FDFCCF209145
:1000C00078003091790081E02D32314008F480E0F1
:1000D000089580917C00807F80937C0080917C00DB
:1000E000836080937C0080917A00806480937A00A2
:1000F00080917A0086FDFCCF2091780030917900C4
:1001000081E02D32314008F480E0089580917C0038
:10011000807F80937C0080917C00826080937C0053
:1001200080917A00806480937A0080917A0086FDC5
:10013000FCCF209178003091790081E02D32314060
:1001400008F480E00895CF938FDF882311F0C8E092
:1001500001C0C0E0A6DF8111C460D8DF8111C26098
:10016000B8DF8111C1608C2FCF9108958AB1816F62
:100170008AB984B1866084B98BB180668BB9E0E8B6
:10018000F0E08081816A8083E1E8F0E0808189602D
:100190008083789408958BB18F708BB98BB1806612
:1001A0008BB908958BB18F708BB98BB180658BB98A
:1001B00008958BB18F708BB98BB1806A8BB908951C
:1001C0008F3051F4E8DF88E790E0909389008093C6
:1001D000880088E890E058C08E3051F4EADF81E969
:1001E00090E0909389008093880081EB90E025C097
:1001F000982F9B7F983051F4DCDF86E990E0909354
:1002000089008093880081EB90E03EC08D3051F4EE
:10021000C2DF83E790E0909389008093880081E9B2
:1002200090E032C08730B9F4BDDF81EB90E090936D
:1002300089008093880081E990E090938B008093FF
:100240008A002FEF89EF90E0215080409040E1F745
:1002500000C0000034C0982F9D7F913051F4A2DF80
:1002600081EB90E0909389008093880085EA90E08C
:100270000BC08B3071F48FDF81E990E0909389009F
:100280008093880083E790E090938B0080938A00AE
:1002900016C0811114C0109289001092880010922B
:1002A0008B0010928A002FEF89E698E12150804060
:1002B0009040E1F700C0000081E090E0089580E008
:1002C00090E0089553DFBFDE3EDF8F3011F0589885
:1002D00001C0589A75DF8FEB9DE50197F1F700C0DB
:0802E0000000F2CFF894FFCFFB
:00000001FF
