:1000000019C028C027C026C025C024C023C022C0D4
:1000100021C020C01FC01EC01DC01CC01BC01AC0F4
:1000200019C018C017C016C015C014C013C012C024
:1000300011C010C011241FBECFEFD4E0DEBFCDBF72
:1000400021E0A0E0B1E001C01D92A430B207E1F7C9
:1000500037D21FC4D5CFAAE7B0E08C9180688C93CB
:10006000ECE7F0E08081806480838C9187608C93E2
:100070008081807F8083089580917C00807F809341
:100080007C0080917C00816080937C0080917A006C
:10009000806480937A0080917A0086FDFCCF209165
:1000A00078003091790081E02D32314008F480E011
:1000B000089580917C00807F80937C0080917A00FD
:1000C000806480937A0080917A0086FDFCCF209135
:1000D00078003091790081E02D32314008F480E0E1
:1000E000089580917C00807F80937C0080917C00CB
:1000F000836080937C0080917A00806480937A0092
:1001000080917A0086FDFCCF2091780030917900B3
:1001100081E02D32314008F480E0089580917C0028
:10012000807F80937C0080917C00826080937C0043
:1001300080917A00806480937A0080917A0086FDB5
:10014000FCCF209178003091790081E02D32314050
:1001500008F480E00895CF938FDF882311F0C8E082
:1001600001C0C0E0A6DF8111C460D8DF8111C26088
:10017000B8DF8111C1608C2FCF9108958AB1816F52
:100180008AB984B1866084B98BB180668BB9E0E8A6
:10019000F0E08081816A8083E1E8F0E0808189601D
:1001A0008083789408958BB18F708BB98BB1806602
:1001B0008BB908958BB18F708BB98BB180658BB97A
:1001C00008958BB18F708BB98BB1806A8BB908950C
:1001D0008F3051F4E8DF88E790E0909389008093B6
:1001E000880088E890E058C08E3051F4EADF81E959
:1001F00090E0909389008093880081EB90E025C087
:10020000982F9B7F983051F4DCDF86E990E0909343
:1002100089008093880081EB90E03EC08D3051F4DE
:10022000C2DF83E790E0909389008093880081E9A2
:1002300090E032C08730B9F4BDDF81EB90E090935D
:1002400089008093880081E990E090938B008093EF
:100250008A002FEF89EF90E0215080409040E1F735
:1002600000C0000034C0982F9D7F913051F4A2DF70
:1002700081EB90E0909389008093880085EA90E07C
:100280000BC08B3071F48FDF81E990E0909389008F
:100290008093880083E790E090938B0080938A009E
:1002A00016C0811114C0109289001092880010921B
:1002B0008B0010928A002FEF89E698E12150804050
:1002C0009040E1F700C0000081E090E0089580E0F8
:1002D00090E008958F929F92AF92BF92CF92DF925B
:1002E000EF92FF92CF93C82F5EDFC3FD0CC0812C2D
:1002F000912C80E8A82E8FE3B82EC12CD12CE12CB4
:1003000090ECF92E05C0812C912C540175016401EB
:10031000C2FD12C020E030E040E85FE3C701B60153
:10032000DFD06B017C0120E030E040E85FE3C501F5
:10033000B401D7D04B015C01C1FD12C020E030E018
:1003400040E85FE3C701B601CCD06B017C0120E03F
:1003500030E040E85FE3C501B401C3D04B015C016C
:10036000C0FD12C020E030E040E050E4C701B6011B
:10037000B8D06B017C0120E030E040E85FE3C501CC
:10038000B401AFD04B015C0120E030E0A901C50110
:10039000B4010BD1882339F0A5019401C701B6013E
:1003A00008D16B017C0120E030E040E251E4C7015C
:1003B000B6010CD24B015C01A7019601C701B60141
:1003C00090D09B01AC01C501B4018BD04B015C0105
:1003D00020910001309101014091020150910301EF
:1003E000C701B6017DD09B01AC01C501B40179D034
:1003F0004B015C01C0920001D0920101E092020128
:10040000F092030120E030E048E053E46AD06B0151
:100410007C0120E030E04FE753E4D4D118163CF4DF
:100420008FEF90E090938B0080938A0014C020E0BF
:1004300030E0A901C701B601B8D087FF05C010920E
:100440008B0010928A0007C0C701B6011AD17093C1
:100450008B0060938A00A501940160E070E080EF5A
:1004600092E43ED06B017C0120E030E04FE753E4A2
:10047000A9D118163CF48FEF90E0909389008093F7
:10048000880014C020E030E0A901C701B6018DD07A
:1004900087FF05C0109289001092880007C0C7012D
:1004A000B601EFD07093890060938800CF91FF90E0
:1004B000EF90DF90CF90BF90AF909F908F90089576
:1004C0005DDEC9DD48DE8F3011F0589801C0589AC2
:1004D00001DF8FEB9DE50197F1F700C00000F2CF3F
:1004E0005058BB27AA270ED033C124D130F029D1D0
:1004F00020F031F49F3F11F41EF419C10EF4E09581
:10050000E7FB0FC1E92F35D180F3BA1762077307F4
:100510008407950718F071F49EF54DC10EF4E0952F
:100520000B2EBA2FA02D0B01B90190010C01CA01AD
:10053000A0011124FF27591B99F0593F50F4503E58
:1005400068F11A16F040A22F232F342F4427585F4A
:10055000F3CF469537952795A795F0405395C9F762
:100560007EF41F16BA0B620B730B840BBAF091501A
:10057000A1F0FF0FBB1F661F771F881FC2F70EC0B9
:10058000BA0F621F731F841F48F48795779567958C
:10059000B795F7959E3F08F0B3CF9395880F08F075
:1005A0009927EE0F97958795089597D008F481E0E5
:1005B00008950CD0CDC0C5D040F0BCD030F021F4AF
:1005C0005F3F19F0AEC05111F7C0B1C0D2D098F35F
:1005D0009923C9F35523B1F3951B550BBB27AA27C4
:1005E00062177307840738F09F5F5F4F220F331F36
:1005F000441FAA1FA9F333D00E2E3AF0E0E830D002
:1006000091505040E695001CCAF729D0FE2F27D004
:10061000660F771F881FBB1F261737074807AB07D2
:10062000B0E809F0BB0B802DBF01FF2793585F4F47
:100630002AF09E3F510568F074C0BEC05F3FECF3E6
:10064000983EDCF3869577956795B795F7959F5F0C
:10065000C9F7880F911D9695879597F90895E1E060
:10066000660F771F881FBB1F621773078407BA07BF
:1006700020F0621B730B840BBA0BEE1F88F7E0951A
:1006800008957FD088F09F5790F0B92F9927B751E0
:10069000A0F0D1F0660F771F881F991F1AF0BA9546
:1006A000C9F712C0B13081F086D0B1E0089583C09F
:1006B000672F782F8827B85F39F0B93FCCF386953C
:1006C00077956795B395D9F73EF490958095709599
:1006D00061957F4F8F4F9F4F0895990F0008550FD9
:1006E000AA0BE0E8FEEF16161706E807F907C0F0B8
:1006F00012161306E407F50798F0621B730B840BC0
:10070000950B39F40A2661F0232B242B252B21F499
:1007100008950A2609F4A140A6958FEF811D811D39
:10072000089597F99F6780E870E060E008959FEF73
:1007300080EC089500240A94161617061806090678
:10074000089500240A941216130614060506089547
:10075000092E0394000C11F4882352F0BB0F40F4CF
:10076000BF2B11F460FF04C06F5F7F4F8F4F9F4F0F
:10077000089557FD9058440F551F59F05F3F71F091
:100780004795880F97FB991F61F09F3F79F08795F8
:100790000895121613061406551FF2CF4695F1DF81
:1007A00008C0161617061806991FF1CF8695710511
:1007B000610508940895E894BB2766277727CB0145
:1007C00097F908958ADF08F48FEF08950BD0C0CF12
:1007D000B1DF28F0B6DF18F0952309F0A2CFA7CF3C
:1007E0001124EACFC6DFA0F3959FD1F3950F50E017
:1007F000551F629FF001729FBB27F00DB11D639FD3
:10080000AA27F00DB11DAA1F649F6627B00DA11D78
:10081000661F829F2227B00DA11D621F739FB00D1E
:10082000A11D621F839FA00D611D221F749F33278E
:10083000A00D611D231F849F600D211D822F762F27
:100840006A2F11249F5750408AF0E1F088234AF024
:10085000EE0FFF1FBB1F661F771F881F9150504070
:10086000A9F79E3F510570F05CCFA6CF5F3FECF338
:10087000983EDCF3869577956795B795F795E7955C
:100880009F5FC1F7FE2B880F911D9695879597F96D
:060890000895F894FFCF6B
:00000001FF
